{
    "contractName": "MultiRewarderPerSec",
    "abi": [
        {
            "inputs": [
                {
                    "internalType": "address",
                    "name": "_lpToken",
                    "type": "address"
                },
                {
                    "internalType": "address[]",
                    "name": "_tokens",
                    "type": "address[]"
                },
                {
                    "internalType": "uint256[]",
                    "name": "_tokensPerSec",
                    "type": "uint256[]"
                },
                {
                    "internalType": "address",
                    "name": "_MCA",
                    "type": "address"
                },
                {
                    "internalType": "address",
                    "name": "_governance",
                    "type": "address"
                }
            ],
            "stateMutability": "nonpayable",
            "type": "constructor"
        },
        {
            "anonymous": false,
            "inputs": [
                {
                    "indexed": true,
                    "internalType": "address",
                    "name": "user",
                    "type": "address"
                },
                {
                    "indexed": false,
                    "internalType": "uint256[]",
                    "name": "amounts",
                    "type": "uint256[]"
                }
            ],
            "name": "OnReward",
            "type": "event"
        },
        {
            "anonymous": false,
            "inputs": [
                {
                    "indexed": true,
                    "internalType": "address",
                    "name": "previousOwner",
                    "type": "address"
                },
                {
                    "indexed": true,
                    "internalType": "address",
                    "name": "newOwner",
                    "type": "address"
                }
            ],
            "name": "OwnershipTransferred",
            "type": "event"
        },
        {
            "anonymous": false,
            "inputs": [
                {
                    "indexed": false,
                    "internalType": "address",
                    "name": "token",
                    "type": "address"
                },
                {
                    "indexed": false,
                    "internalType": "uint256",
                    "name": "tokenPerSec",
                    "type": "uint256"
                }
            ],
            "name": "RewardRateUpdated",
            "type": "event"
        },
        {
            "inputs": [],
            "name": "MCA",
            "outputs": [
                {
                    "internalType": "address",
                    "name": "",
                    "type": "address"
                }
            ],
            "stateMutability": "view",
            "type": "function"
        },
        {
            "inputs": [
                {
                    "internalType": "address",
                    "name": "token",
                    "type": "address"
                },
                {
                    "internalType": "uint256",
                    "name": "tokenPerSec",
                    "type": "uint256"
                }
            ],
            "name": "addRewardToken",
            "outputs": [],
            "stateMutability": "nonpayable",
            "type": "function"
        },
        {
            "inputs": [
                {
                    "internalType": "uint256",
                    "name": "tokenIndex",
                    "type": "uint256"
                }
            ],
            "name": "balance",
            "outputs": [
                {
                    "internalType": "uint256",
                    "name": "balance",
                    "type": "uint256"
                }
            ],
            "stateMutability": "view",
            "type": "function"
        },
        {
            "inputs": [],
            "name": "claimOwnership",
            "outputs": [],
            "stateMutability": "nonpayable",
            "type": "function"
        },
        {
            "inputs": [
                {
                    "internalType": "uint256",
                    "name": "tokenIndex",
                    "type": "uint256"
                }
            ],
            "name": "emergencyWithdraw",
            "outputs": [],
            "stateMutability": "nonpayable",
            "type": "function"
        },
        {
            "inputs": [],
            "name": "governance",
            "outputs": [
                {
                    "internalType": "address",
                    "name": "",
                    "type": "address"
                }
            ],
            "stateMutability": "view",
            "type": "function"
        },
        {
            "inputs": [],
            "name": "lpToken",
            "outputs": [
                {
                    "internalType": "address",
                    "name": "",
                    "type": "address"
                }
            ],
            "stateMutability": "view",
            "type": "function"
        },
        {
            "inputs": [
                {
                    "internalType": "address",
                    "name": "_user",
                    "type": "address"
                },
                {
                    "internalType": "uint256",
                    "name": "_lpAmount",
                    "type": "uint256"
                }
            ],
            "name": "onAxialReward",
            "outputs": [],
            "stateMutability": "nonpayable",
            "type": "function"
        },
        {
            "inputs": [],
            "name": "owner",
            "outputs": [
                {
                    "internalType": "address",
                    "name": "",
                    "type": "address"
                }
            ],
            "stateMutability": "view",
            "type": "function"
        },
        {
            "inputs": [
                {
                    "internalType": "uint256",
                    "name": "pid",
                    "type": "uint256"
                },
                {
                    "internalType": "address",
                    "name": "_user",
                    "type": "address"
                }
            ],
            "name": "pendingMasterChef",
            "outputs": [
                {
                    "internalType": "uint256",
                    "name": "pendingAxial",
                    "type": "uint256"
                },
                {
                    "internalType": "uint256",
                    "name": "tokenIndex",
                    "type": "uint256"
                },
                {
                    "internalType": "address",
                    "name": "bonusTokenAddress",
                    "type": "address"
                },
                {
                    "internalType": "string",
                    "name": "bonusTokenSymbol",
                    "type": "string"
                },
                {
                    "internalType": "uint256",
                    "name": "pendingBonusToken",
                    "type": "uint256"
                }
            ],
            "stateMutability": "view",
            "type": "function"
        },
        {
            "inputs": [
                {
                    "internalType": "address",
                    "name": "_user",
                    "type": "address"
                },
                {
                    "internalType": "uint256",
                    "name": "tokenIndex",
                    "type": "uint256"
                }
            ],
            "name": "pendingMultiTokens",
            "outputs": [
                {
                    "internalType": "uint256",
                    "name": "pending",
                    "type": "uint256"
                }
            ],
            "stateMutability": "view",
            "type": "function"
        },
        {
            "inputs": [],
            "name": "pendingOwner",
            "outputs": [
                {
                    "internalType": "address",
                    "name": "",
                    "type": "address"
                }
            ],
            "stateMutability": "view",
            "type": "function"
        },
        {
            "inputs": [
                {
                    "internalType": "address",
                    "name": "_user",
                    "type": "address"
                }
            ],
            "name": "pendingTokens",
            "outputs": [
                {
                    "internalType": "uint256",
                    "name": "pending",
                    "type": "uint256"
                }
            ],
            "stateMutability": "view",
            "type": "function"
        },
        {
            "inputs": [],
            "name": "poolInfo",
            "outputs": [
                {
                    "internalType": "uint256",
                    "name": "lastRewardTimestamp",
                    "type": "uint256"
                }
            ],
            "stateMutability": "view",
            "type": "function"
        },
        {
            "inputs": [],
            "name": "rewardToken",
            "outputs": [
                {
                    "internalType": "contract IERC20",
                    "name": "",
                    "type": "address"
                }
            ],
            "stateMutability": "view",
            "type": "function"
        },
        {
            "inputs": [],
            "name": "rewardTokensLength",
            "outputs": [
                {
                    "internalType": "uint256",
                    "name": "",
                    "type": "uint256"
                }
            ],
            "stateMutability": "view",
            "type": "function"
        },
        {
            "inputs": [
                {
                    "internalType": "address",
                    "name": "_governance",
                    "type": "address"
                }
            ],
            "name": "setGovernance",
            "outputs": [],
            "stateMutability": "nonpayable",
            "type": "function"
        },
        {
            "inputs": [
                {
                    "internalType": "address",
                    "name": "_token",
                    "type": "address"
                },
                {
                    "internalType": "uint256",
                    "name": "_tokenPerSec",
                    "type": "uint256"
                }
            ],
            "name": "setRewardRate",
            "outputs": [],
            "stateMutability": "nonpayable",
            "type": "function"
        },
        {
            "inputs": [
                {
                    "internalType": "address",
                    "name": "",
                    "type": "address"
                }
            ],
            "name": "tokensPerSec",
            "outputs": [
                {
                    "internalType": "uint256",
                    "name": "",
                    "type": "uint256"
                }
            ],
            "stateMutability": "view",
            "type": "function"
        },
        {
            "inputs": [
                {
                    "internalType": "address",
                    "name": "newOwner",
                    "type": "address"
                },
                {
                    "internalType": "bool",
                    "name": "direct",
                    "type": "bool"
                },
                {
                    "internalType": "bool",
                    "name": "renounce",
                    "type": "bool"
                }
            ],
            "name": "transferOwnership",
            "outputs": [],
            "stateMutability": "nonpayable",
            "type": "function"
        },
        {
            "inputs": [],
            "name": "updatePool",
            "outputs": [
                {
                    "components": [
                        {
                            "internalType": "uint256[]",
                            "name": "accTokensPerShare",
                            "type": "uint256[]"
                        },
                        {
                            "internalType": "uint256",
                            "name": "lastRewardTimestamp",
                            "type": "uint256"
                        }
                    ],
                    "internalType": "struct MultiRewarderPerSec.PoolInfo",
                    "name": "pool",
                    "type": "tuple"
                }
            ],
            "stateMutability": "nonpayable",
            "type": "function"
        },
        {
            "inputs": [
                {
                    "internalType": "address",
                    "name": "",
                    "type": "address"
                }
            ],
            "name": "userInfo",
            "outputs": [
                {
                    "internalType": "uint256",
                    "name": "amount",
                    "type": "uint256"
                }
            ],
            "stateMutability": "view",
            "type": "function"
        },
        {
            "stateMutability": "payable",
            "type": "receive"
        }
    ],
    "bytecode": "60c06040523480156200001157600080fd5b506040516200232c3803806200232c8339810160408190526200003491620002bd565b600080546001600160a01b0319163390811782556040519091907f8be0079c531659141344cd1fd0a4f28419497f9722a3daafe3b4186f6b6457e0908290a3600160028190555062000091856200022360201b620014c01760201c565b620000b95760405162461bcd60e51b8152600401620000b09062000426565b60405180910390fd5b620000cf826200022360201b620014c01760201c565b620000ee5760405162461bcd60e51b8152600401620000b090620003c9565b6001600160601b0319606086901b1660805260005b8451811015620001e35760058582815181106200011c57fe5b60209081029190910181015182546001810184556000938452919092200180546001600160a01b0319166001600160a01b0390921691909117905583518490829081106200016657fe5b6020026020010151600660008784815181106200017f57fe5b6020908102919091018101516001600160a01b0316825281019190915260400160009081209190915560078054600181810183559183527fa66cc928b5edb82af9bd49922954155ab7b0942694bea4ce44661d9a8736c68801919091550162000103565b5060609190911b6001600160601b03191660a052600380546001600160a01b0319166001600160a01b0390921691909117905550504260085550620004bb565b3b151590565b80516001600160a01b03811681146200024157600080fd5b92915050565b600082601f83011262000258578081fd5b81516200026f62000269826200049b565b62000474565b8181529150602080830190848101818402860182018710156200029157600080fd5b60005b84811015620002b25781518452928201929082019060010162000294565b505050505092915050565b600080600080600060a08688031215620002d5578081fd5b620002e1878762000229565b602087810151919650906001600160401b038082111562000300578384fd5b818901915089601f83011262000314578384fd5b81516200032562000269826200049b565b81815284810190848601868402860187018e101562000342578788fd5b8795505b8386101562000370576200035b8e8262000229565b83526001959095019491860191860162000346565b5060408c015190995094505050808311156200038a578384fd5b50506200039a8882890162000247565b935050620003ac876060880162000229565b9150620003bd876080880162000229565b90509295509295909350565b60208082526035908201527f636f6e7374727563746f723a204d617374657243686566417869616c206d757360408201527f7420626520612076616c696420636f6e74726163740000000000000000000000606082015260800190565b6020808252602e908201527f636f6e7374727563746f723a204c5020746f6b656e206d75737420626520612060408201526d1d985b1a590818dbdb9d1c9858dd60921b606082015260800190565b6040518181016001600160401b03811182821017156200049357600080fd5b604052919050565b60006001600160401b03821115620004b1578081fd5b5060209081020190565b60805160601c60a05160601c611e2962000503600039806105c5528061069e5280610fd952806110cd52806112cf525080610ec152806110a052806112a25250611e296000f3fe6080604052600436106101395760003560e01c80635fcbd285116100ab578063c031a66f1161006f578063c031a66f14610339578063c4f4a15114610359578063e30c39781461036e578063e3161ddd14610383578063ec37155c146103a5578063f7c618c1146103c557610140565b80635fcbd285146102ba578063812a71d5146102cf5780638da5cb5b146102ef578063ab033ea914610304578063bf199e621461032457610140565b80631959a002116100fd5780631959a0021461020e57806347bb89f01461022e5780634e71e0c81461024e5780635312ea8e146102635780635a2f3d09146102835780635aa6e6751461029857610140565b8063078dfbe71461014557806308ba91c7146101675780630e3802e91461019d5780631646809a146101bd578063180da948146101ee57610140565b3661014057005b600080fd5b34801561015157600080fd5b506101656101603660046117ea565b6103da565b005b34801561017357600080fd5b506101876101823660046117cf565b6104c9565b6040516101949190611cff565b60405180910390f35b3480156101a957600080fd5b506101656101b8366004611833565b6104db565b3480156101c957600080fd5b506101dd6101d83660046118a9565b6105b9565b604051610194959493929190611d1f565b3480156101fa57600080fd5b50610165610209366004611833565b610693565b34801561021a57600080fd5b506101876102293660046117cf565b610c93565b34801561023a57600080fd5b50610187610249366004611879565b610ca5565b34801561025a57600080fd5b50610165610d43565b34801561026f57600080fd5b5061016561027e366004611879565b610dd0565b34801561028f57600080fd5b50610187610eaa565b3480156102a457600080fd5b506102ad610eb0565b6040516101949190611940565b3480156102c657600080fd5b506102ad610ebf565b3480156102db57600080fd5b506101656102ea366004611833565b610ee3565b3480156102fb57600080fd5b506102ad610f6f565b34801561031057600080fd5b5061016561031f3660046117cf565b610f7e565b34801561033057600080fd5b50610187610fca565b34801561034557600080fd5b506101876103543660046117cf565b610fd1565b34801561036557600080fd5b506102ad610fd7565b34801561037a57600080fd5b506102ad610ffb565b34801561038f57600080fd5b5061039861100a565b6040516101949190611ca3565b3480156103b157600080fd5b506101876103c0366004611833565b611254565b3480156103d157600080fd5b506102ad6114b1565b6000546001600160a01b0316331461040d5760405162461bcd60e51b815260040161040490611b77565b60405180910390fd5b81156104a8576001600160a01b0383161515806104275750805b6104435760405162461bcd60e51b815260040161040490611a54565b600080546040516001600160a01b03808716939216917f8be0079c531659141344cd1fd0a4f28419497f9722a3daafe3b4186f6b6457e091a3600080546001600160a01b0385166001600160a01b0319918216179091556001805490911690556104c4565b600180546001600160a01b0319166001600160a01b0385161790555b505050565b60066020526000908152604090205481565b6003546001600160a01b031633146105055760405162461bcd60e51b815260040161040490611a1d565b8161050f816114c0565b61052b5760405162461bcd60e51b815260040161040490611af1565b506005805460018181019092557f036b6384b5eca791c62761152d0c79bb0604c104a5fb6f4eb0703f3154bb3db00180546001600160a01b039094166001600160a01b03199094168417905560009283526006602052604083209190915560078054918201815582527fa66cc928b5edb82af9bd49922954155ab7b0942694bea4ce44661d9a8736c6880155565b600080600060606000807f00000000000000000000000000000000000000000000000000000000000000009050600080826001600160a01b03166393f1a40b8b8b6040518363ffffffff1660e01b8152600401610617929190611d08565b604080518083038186803b15801561062e57600080fd5b505afa158015610642573d6000803e3d6000fd5b505050506040513d601f19601f8201168201806040525081019061066691906118d5565b91509150610672611724565b50604080518082019091529182526020909101525093969295509093509190565b336001600160a01b037f000000000000000000000000000000000000000000000000000000000000000016146106db5760405162461bcd60e51b815260040161040490611c4f565b6002805414156106fd5760405162461bcd60e51b815260040161040490611c18565b6002805561070961100a565b5061071261173e565b60408051600780546060602082028401810185529383018181529293919284929091849184018282801561076557602002820191906000526020600020905b815481526020019060010190808311610751575b5050509183525050600191909101546020918201526001600160a01b0385166000908152600990915260409020805491925090606090819015610c45576107c3604051806060016040528060348152602001611dc0603491396114c6565b60005b600554811015610c43576000610894856002016000600585815481106107e857fe5b60009182526020808320909101546001600160a01b0316835282019290925260400181205460058054919261088e9260018b0192908890811061082757fe5b60009182526020808320909101546001600160a01b031683528201929092526040019020548951805164e8d4a5100091610880918990811061086557fe5b60200260200101518b6000015461150c90919063ffffffff16565b8161088757fe5b049061154d565b90611575565b9050808483815181106108a357fe5b6020026020010181815250506108f66040518060400160405280601281526020017150656e64696e6720746f6b656e732061726560701b8152508584815181106108e957fe5b602002602001015161159a565b60006001600160a01b03166005838154811061090e57fe5b6000918252602090912001546001600160a01b031614610b585760006005838154811061093757fe5b6000918252602090912001546040516370a0823160e01b81526001600160a01b03909116906370a0823190610970903090600401611940565b60206040518083038186803b15801561098857600080fd5b505afa15801561099c573d6000803e3d6000fd5b505050506040513d601f19601f820116820180604052508101906109c09190611891565b90506109e4604051806060016040528060238152602001611d9d602391398261159a565b808584815181106109f157fe5b60200260200101511115610a8057610a2d898260058681548110610a1157fe5b6000918252602090912001546001600160a01b031691906115e3565b80858481518110610a3a57fe5b60200260200101510386600201600060058681548110610a5657fe5b60009182526020808320909101546001600160a01b03168352820192909252604001902055610ae0565b610aa589868581518110610a9057fe5b602002602001015160058681548110610a1157fe5b600086600201600060058681548110610aba57fe5b60009182526020808320909101546001600160a01b031683528201929092526040019020555b610b566040518060400160405280601881526020017f756e70616964207265776172647320666f72207573657220000000000000000081525087600201600060058781548110610b2c57fe5b60009182526020808320909101546001600160a01b0316835282019290925260400190205461159a565b505b8685558551805164e8d4a5100091610b8f9185908110610b7457fe5b6020026020010151876000015461150c90919063ffffffff16565b81610b9657fe5b0485600101600060058581548110610baa57fe5b60009182526020808320909101546001600160a01b03168352820192909252604001812091909155600580546002880192919085908110610be757fe5b60009182526020808320909101546001600160a01b031683528201929092526040019020548451859084908110610c1a57fe5b602002602001015103838381518110610c2f57fe5b6020908102919091010152506001016107c6565b505b856001600160a01b03167f35a76d8588e2dc403175bf79c7dc932db9af68a612bd3537ef9dd34c52e337e482604051610c7e919061196d565b60405180910390a25050600160025550505050565b60096020526000908152604090205481565b600060058281548110610cb457fe5b6000918252602090912001546040516370a0823160e01b81526001600160a01b03909116906370a0823190610ced903090600401611940565b60206040518083038186803b158015610d0557600080fd5b505afa158015610d19573d6000803e3d6000fd5b505050506040513d601f19601f82011682018060405250810190610d3d9190611891565b92915050565b6001546001600160a01b0316338114610d6e5760405162461bcd60e51b815260040161040490611bac565b600080546040516001600160a01b03808516939216917f8be0079c531659141344cd1fd0a4f28419497f9722a3daafe3b4186f6b6457e091a3600080546001600160a01b039092166001600160a01b0319928316179055600180549091169055565b6000546001600160a01b03163314610dfa5760405162461bcd60e51b815260040161040490611b77565b600060058281548110610e0957fe5b60009182526020822001546040516370a0823160e01b81526001600160a01b03909116925082906370a0823190610e44903090600401611940565b60206040518083038186803b158015610e5c57600080fd5b505afa158015610e70573d6000803e3d6000fd5b505050506040513d601f19601f82011682018060405250810190610e949190611891565b90506104c46001600160a01b03831633836115e3565b60085481565b6003546001600160a01b031681565b7f000000000000000000000000000000000000000000000000000000000000000081565b6000546001600160a01b03163314610f0d5760405162461bcd60e51b815260040161040490611b77565b610f1561100a565b506001600160a01b03821660009081526006602052604090819020829055517f9581ad17b8550e1bb81ad2e2da42cd0dcc395d9f5012a35daeffbd670baecbbf90610f639084908490611954565b60405180910390a15050565b6000546001600160a01b031681565b6003546001600160a01b03163314610fa85760405162461bcd60e51b815260040161040490611a1d565b600380546001600160a01b0319166001600160a01b0392909216919091179055565b6005545b90565b50600090565b7f000000000000000000000000000000000000000000000000000000000000000081565b6001546001600160a01b031681565b61101261173e565b60408051600780546060602082028401810185529383018181529293919284929091849184018282801561106557602002820191906000526020600020905b815481526020019060010190808311611051575b5050505050815260200160018201548152505090508060200151421115610fce576040516370a0823160e01b81526000906001600160a01b037f000000000000000000000000000000000000000000000000000000000000000016906370a08231906110f5907f000000000000000000000000000000000000000000000000000000000000000090600401611940565b60206040518083038186803b15801561110d57600080fd5b505afa158015611121573d6000803e3d6000fd5b505050506040513d601f19601f820116820180604052508101906111459190611891565b9050801561121f5760005b60055481101561121d57600061117384602001514261154d90919063ffffffff16565b905060006111b7600660006005868154811061118b57fe5b60009182526020808320909101546001600160a01b03168352820192909252604001902054839061150c565b90506111fa846111cc8364e8d4a5100061150c565b816111d357fe5b04866000015185815181106111e457fe5b602002602001015161157590919063ffffffff16565b855180518590811061120857fe5b60209081029190910101525050600101611150565b505b426020808401919091528251805184926007926112429284929190910190611758565b50602082015181600101559050505090565b6001600160a01b0382166000908152600960205260408120600780548391908590811061127d57fe5b60009182526020822001546040516370a0823160e01b81529092506001600160a01b037f000000000000000000000000000000000000000000000000000000000000000016906370a08231906112f7907f000000000000000000000000000000000000000000000000000000000000000090600401611940565b60206040518083038186803b15801561130f57600080fd5b505afa158015611323573d6000803e3d6000fd5b505050506040513d601f19601f820116820180604052508101906113479190611891565b905061137a6040518060400160405280600f81526020016e546865206c70537570706c7920697360881b8152508261159a565b6113b26040518060400160405280601281526020017154686520757365722e616d6f756e7420697360701b815250846000015461159a565b600854421180156113c257508015155b1561141a576008546000906113d890429061154d565b905060006113f06006600060058a8154811061118b57fe5b905061141561140e846114088464e8d4a5100061150c565b906116d1565b8590611575565b935050505b6114a78360020160006005888154811061143057fe5b60009182526020808320909101546001600160a01b0316835282019290925260400181205460058054919261088e926001890192908b90811061146f57fe5b60009182526020808320909101546001600160a01b03168352820192909252604001902054865464e8d4a5100090610880908861150c565b9695505050505050565b6004546001600160a01b031681565b3b151590565b611509816040516024016114da91906119b1565b60408051601f198184030181529190526020810180516001600160e01b031663104c13eb60e21b179052611703565b50565b60008261151b57506000610d3d565b8282028284828161152857fe5b04146115465760405162461bcd60e51b815260040161040490611b36565b9392505050565b60008282111561156f5760405162461bcd60e51b815260040161040490611a83565b50900390565b6000828201838110156115465760405162461bcd60e51b8152600401610404906119e6565b6115df82826040516024016115b09291906119c4565b60408051601f198184030181529190526020810180516001600160e01b03166309710a9d60e41b179052611703565b5050565b60006060846001600160a01b031663a9059cbb8585604051602401611609929190611954565b6040516020818303038152906040529060e01b6020820180516001600160e01b0383818316178352505050506040516116429190611924565b6000604051808303816000865af19150503d806000811461167f576040519150601f19603f3d011682016040523d82523d6000602084013e611684565b606091505b50915091508180156116ae5750805115806116ae5750808060200190518101906116ae919061185d565b6116ca5760405162461bcd60e51b815260040161040490611be1565b5050505050565b60008082116116f25760405162461bcd60e51b815260040161040490611aba565b8183816116fb57fe5b049392505050565b80516a636f6e736f6c652e6c6f67602083016000808483855afa5050505050565b604051806040016040528060008152602001600081525090565b604051806040016040528060608152602001600081525090565b828054828255906000526020600020908101928215611793579160200282015b82811115611793578251825591602001919060010190611778565b5061179f9291506117a3565b5090565b5b8082111561179f57600081556001016117a4565b80356001600160a01b0381168114610d3d57600080fd5b6000602082840312156117e0578081fd5b61154683836117b8565b6000806000606084860312156117fe578182fd5b61180885856117b8565b9250602084013561181881611d8e565b9150604084013561182881611d8e565b809150509250925092565b60008060408385031215611845578182fd5b61184f84846117b8565b946020939093013593505050565b60006020828403121561186e578081fd5b815161154681611d8e565b60006020828403121561188a578081fd5b5035919050565b6000602082840312156118a2578081fd5b5051919050565b600080604083850312156118bb578182fd5b823591506118cc84602085016117b8565b90509250929050565b600080604083850312156118e7578182fd5b505080516020909101519092909150565b60008151808452611910816020860160208601611d5e565b601f01601f19169290920160200192915050565b60008251611936818460208701611d5e565b9190910192915050565b6001600160a01b0391909116815260200190565b6001600160a01b03929092168252602082015260400190565b6020808252825182820181905260009190848201906040850190845b818110156119a557835183529284019291840191600101611989565b50909695505050505050565b60006020825261154660208301846118f8565b6000604082526119d760408301856118f8565b90508260208301529392505050565b6020808252601b908201527f536166654d6174683a206164646974696f6e206f766572666c6f770000000000604082015260600190565b6020808252601f908201527f756e617574686f72697a65642073656e6465722028676f7665726e616e636500604082015260600190565b6020808252601590820152744f776e61626c653a207a65726f206164647265737360581b604082015260600190565b6020808252601e908201527f536166654d6174683a207375627472616374696f6e206f766572666c6f770000604082015260600190565b6020808252601a908201527f536166654d6174683a206469766973696f6e206279207a65726f000000000000604082015260600190565b60208082526025908201527f72657761726420746f6b656e206d75737420626520612076616c696420636f6e6040820152641d1c9858dd60da1b606082015260800190565b60208082526021908201527f536166654d6174683a206d756c7469706c69636174696f6e206f766572666c6f6040820152607760f81b606082015260800190565b6020808252818101527f4f776e61626c653a2063616c6c6572206973206e6f7420746865206f776e6572604082015260600190565b6020808252818101527f4f776e61626c653a2063616c6c657220213d2070656e64696e67206f776e6572604082015260600190565b6020808252601a908201527f5361666545524332303a205472616e73666572206661696c6564000000000000604082015260600190565b6020808252601f908201527f5265656e7472616e637947756172643a207265656e7472616e742063616c6c00604082015260600190565b60208082526034908201527f6f6e6c794d43413a206f6e6c79204d617374657243686566417869616c206361604082015273371031b0b636103a3434b990333ab731ba34b7b760611b606082015260800190565b6020808252825160408383015280516060840181905260009291820190839060808601905b80831015611ce85783518252928401926001929092019190840190611cc8565b508387015160408701528094505050505092915050565b90815260200190565b9182526001600160a01b0316602082015260400190565b600086825285602083015260018060a01b038516604083015260a06060830152611d4c60a08301856118f8565b90508260808301529695505050505050565b60005b83811015611d79578181015183820152602001611d61565b83811115611d88576000848401525b50505050565b801515811461150957600080fdfe5468652062616c616e6365206f66207468652072657761726420746f6b656e2069732057452061726520696e7369646520746865206c6f6f7020696e20746865206f6e417869616c5265776172642066756e6374696f6ea26469706673582212202e4a7e402bbe514f17fa6abb9c6a85089693cc837b93594ec31090502dd13ca864736f6c634300060c0033",
    "sourcePath": "/Users/abigailcameron/axial-protocol/contracts/rewarders/MultiRewarderPerSec.sol",
    "compiler": {
        "name": "solc",
        "version": "0.6.12+commit.27d51765"
    },
    "functionHashes": {
        "MCA()": "c4f4a151",
        "addRewardToken(address,uint256)": "0e3802e9",
        "balance(uint256)": "47bb89f0",
        "claimOwnership()": "4e71e0c8",
        "emergencyWithdraw(uint256)": "5312ea8e",
        "governance()": "5aa6e675",
        "lpToken()": "5fcbd285",
        "onAxialReward(address,uint256)": "180da948",
        "owner()": "8da5cb5b",
        "pendingMasterChef(uint256,address)": "1646809a",
        "pendingMultiTokens(address,uint256)": "ec37155c",
        "pendingOwner()": "e30c3978",
        "pendingTokens(address)": "c031a66f",
        "poolInfo()": "5a2f3d09",
        "rewardToken()": "f7c618c1",
        "rewardTokensLength()": "bf199e62",
        "setGovernance(address)": "ab033ea9",
        "setRewardRate(address,uint256)": "812a71d5",
        "tokensPerSec(address)": "08ba91c7",
        "transferOwnership(address,bool,bool)": "078dfbe7",
        "updatePool()": "e3161ddd",
        "userInfo(address)": "1959a002"
    },
    "gasEstimates": {
        "creation": {
            "codeDepositCost": "1544200",
            "executionCost": "infinite",
            "totalCost": "infinite"
        },
        "external": {
            "MCA()": "infinite",
            "addRewardToken(address,uint256)": "89592",
            "balance(uint256)": "infinite",
            "claimOwnership()": "45089",
            "emergencyWithdraw(uint256)": "infinite",
            "governance()": "1203",
            "lpToken()": "infinite",
            "onAxialReward(address,uint256)": "infinite",
            "owner()": "1137",
            "pendingMasterChef(uint256,address)": "infinite",
            "pendingMultiTokens(address,uint256)": "infinite",
            "pendingOwner()": "1136",
            "pendingTokens(address)": "415",
            "poolInfo()": "1139",
            "rewardToken()": "1202",
            "rewardTokensLength()": "1140",
            "setGovernance(address)": "22105",
            "setRewardRate(address,uint256)": "infinite",
            "tokensPerSec(address)": "1303",
            "transferOwnership(address,bool,bool)": "infinite",
            "updatePool()": "infinite",
            "userInfo(address)": "1280"
        }
    }
}