{
    "contractName": "SimpleRewarderPerSec",
    "abi": [
        {
            "inputs": [
                {
                    "internalType": "contract IERC20",
                    "name": "_rewardToken",
                    "type": "address"
                },
                {
                    "internalType": "contract IERC20",
                    "name": "_lpToken",
                    "type": "address"
                },
                {
                    "internalType": "uint256",
                    "name": "_tokenPerSec",
                    "type": "uint256"
                },
                {
                    "internalType": "contract IMasterChefAxial",
                    "name": "_MCA",
                    "type": "address"
                },
                {
                    "internalType": "bool",
                    "name": "_isNative",
                    "type": "bool"
                }
            ],
            "stateMutability": "nonpayable",
            "type": "constructor"
        },
        {
            "anonymous": false,
            "inputs": [
                {
                    "indexed": true,
                    "internalType": "address",
                    "name": "user",
                    "type": "address"
                },
                {
                    "indexed": false,
                    "internalType": "uint256",
                    "name": "amount",
                    "type": "uint256"
                }
            ],
            "name": "OnReward",
            "type": "event"
        },
        {
            "anonymous": false,
            "inputs": [
                {
                    "indexed": true,
                    "internalType": "address",
                    "name": "previousOwner",
                    "type": "address"
                },
                {
                    "indexed": true,
                    "internalType": "address",
                    "name": "newOwner",
                    "type": "address"
                }
            ],
            "name": "OwnershipTransferred",
            "type": "event"
        },
        {
            "anonymous": false,
            "inputs": [
                {
                    "indexed": false,
                    "internalType": "uint256",
                    "name": "oldRate",
                    "type": "uint256"
                },
                {
                    "indexed": false,
                    "internalType": "uint256",
                    "name": "newRate",
                    "type": "uint256"
                }
            ],
            "name": "RewardRateUpdated",
            "type": "event"
        },
        {
            "inputs": [],
            "name": "MCA",
            "outputs": [
                {
                    "internalType": "contract IMasterChefAxial",
                    "name": "",
                    "type": "address"
                }
            ],
            "stateMutability": "view",
            "type": "function"
        },
        {
            "inputs": [],
            "name": "balance",
            "outputs": [
                {
                    "internalType": "uint256",
                    "name": "",
                    "type": "uint256"
                }
            ],
            "stateMutability": "view",
            "type": "function"
        },
        {
            "inputs": [],
            "name": "claimOwnership",
            "outputs": [],
            "stateMutability": "nonpayable",
            "type": "function"
        },
        {
            "inputs": [],
            "name": "emergencyWithdraw",
            "outputs": [],
            "stateMutability": "nonpayable",
            "type": "function"
        },
        {
            "inputs": [],
            "name": "isNative",
            "outputs": [
                {
                    "internalType": "bool",
                    "name": "",
                    "type": "bool"
                }
            ],
            "stateMutability": "view",
            "type": "function"
        },
        {
            "inputs": [],
            "name": "lpToken",
            "outputs": [
                {
                    "internalType": "contract IERC20",
                    "name": "",
                    "type": "address"
                }
            ],
            "stateMutability": "view",
            "type": "function"
        },
        {
            "inputs": [
                {
                    "internalType": "address",
                    "name": "_user",
                    "type": "address"
                },
                {
                    "internalType": "uint256",
                    "name": "_lpAmount",
                    "type": "uint256"
                }
            ],
            "name": "onAxialReward",
            "outputs": [],
            "stateMutability": "nonpayable",
            "type": "function"
        },
        {
            "inputs": [],
            "name": "owner",
            "outputs": [
                {
                    "internalType": "address",
                    "name": "",
                    "type": "address"
                }
            ],
            "stateMutability": "view",
            "type": "function"
        },
        {
            "inputs": [],
            "name": "pendingOwner",
            "outputs": [
                {
                    "internalType": "address",
                    "name": "",
                    "type": "address"
                }
            ],
            "stateMutability": "view",
            "type": "function"
        },
        {
            "inputs": [
                {
                    "internalType": "address",
                    "name": "_user",
                    "type": "address"
                }
            ],
            "name": "pendingTokens",
            "outputs": [
                {
                    "internalType": "uint256",
                    "name": "pending",
                    "type": "uint256"
                }
            ],
            "stateMutability": "view",
            "type": "function"
        },
        {
            "inputs": [],
            "name": "poolInfo",
            "outputs": [
                {
                    "internalType": "uint256",
                    "name": "accTokenPerShare",
                    "type": "uint256"
                },
                {
                    "internalType": "uint256",
                    "name": "lastRewardTimestamp",
                    "type": "uint256"
                }
            ],
            "stateMutability": "view",
            "type": "function"
        },
        {
            "inputs": [],
            "name": "rewardToken",
            "outputs": [
                {
                    "internalType": "contract IERC20",
                    "name": "",
                    "type": "address"
                }
            ],
            "stateMutability": "view",
            "type": "function"
        },
        {
            "inputs": [
                {
                    "internalType": "uint256",
                    "name": "_tokenPerSec",
                    "type": "uint256"
                }
            ],
            "name": "setRewardRate",
            "outputs": [],
            "stateMutability": "nonpayable",
            "type": "function"
        },
        {
            "inputs": [],
            "name": "tokenPerSec",
            "outputs": [
                {
                    "internalType": "uint256",
                    "name": "",
                    "type": "uint256"
                }
            ],
            "stateMutability": "view",
            "type": "function"
        },
        {
            "inputs": [
                {
                    "internalType": "address",
                    "name": "newOwner",
                    "type": "address"
                },
                {
                    "internalType": "bool",
                    "name": "direct",
                    "type": "bool"
                },
                {
                    "internalType": "bool",
                    "name": "renounce",
                    "type": "bool"
                }
            ],
            "name": "transferOwnership",
            "outputs": [],
            "stateMutability": "nonpayable",
            "type": "function"
        },
        {
            "inputs": [],
            "name": "updatePool",
            "outputs": [
                {
                    "components": [
                        {
                            "internalType": "uint256",
                            "name": "accTokenPerShare",
                            "type": "uint256"
                        },
                        {
                            "internalType": "uint256",
                            "name": "lastRewardTimestamp",
                            "type": "uint256"
                        }
                    ],
                    "internalType": "struct SimpleRewarderPerSec.PoolInfo",
                    "name": "pool",
                    "type": "tuple"
                }
            ],
            "stateMutability": "nonpayable",
            "type": "function"
        },
        {
            "inputs": [
                {
                    "internalType": "address",
                    "name": "",
                    "type": "address"
                }
            ],
            "name": "userInfo",
            "outputs": [
                {
                    "internalType": "uint256",
                    "name": "amount",
                    "type": "uint256"
                },
                {
                    "internalType": "uint256",
                    "name": "rewardDebt",
                    "type": "uint256"
                },
                {
                    "internalType": "uint256",
                    "name": "unpaidRewards",
                    "type": "uint256"
                }
            ],
            "stateMutability": "view",
            "type": "function"
        },
        {
            "stateMutability": "payable",
            "type": "receive"
        }
    ],
    "bytecode": "6101006040523480156200001257600080fd5b50604051620018fe380380620018fe83398101604081905262000035916200017f565b600080546001600160a01b0319163390811782556040519091907f8be0079c531659141344cd1fd0a4f28419497f9722a3daafe3b4186f6b6457e0908290a3600160028190555062000092856200017960201b62000f3d1760201c565b620000ba5760405162461bcd60e51b8152600401620000b190620001f5565b60405180910390fd5b620000d0846200017960201b62000f3d1760201c565b620000ef5760405162461bcd60e51b8152600401620000b190620002a4565b62000105826200017960201b62000f3d1760201c565b620001245760405162461bcd60e51b8152600401620000b19062000247565b6001600160601b0319606095861b811660805293851b841660a05260069290925590921b1660e052151560f81b60c052604080518082019091526000808252426020929092018290526003556004556200030b565b3b151590565b600080600080600060a0868803121562000197578081fd5b8551620001a481620002f2565b6020870151909550620001b781620002f2565b604087015160608801519195509350620001d181620002f2565b60808701519092508015158114620001e7578182fd5b809150509295509295909350565b60208082526032908201527f636f6e7374727563746f723a2072657761726420746f6b656e206d7573742062604082015271194818481d985b1a590818dbdb9d1c9858dd60721b606082015260800190565b60208082526035908201527f636f6e7374727563746f723a204d617374657243686566417869616c206d757360408201527f7420626520612076616c696420636f6e74726163740000000000000000000000606082015260800190565b6020808252602e908201527f636f6e7374727563746f723a204c5020746f6b656e206d75737420626520612060408201526d1d985b1a590818dbdb9d1c9858dd60921b606082015260800190565b6001600160a01b03811681146200030857600080fd5b50565b60805160601c60a05160601c60c05160f81c60e05160601c61156b62000393600039806104005280610abe5280610be25280610e285250806104fa52806108c0528061096e5280610c3052508061089c5280610a8f5280610dfb52508061065652806106f2528061073352806109b05280610cdc5280610d805280610f1b525061156b6000f3fe6080604052600436106101025760003560e01c80638da5cb5b11610095578063c4f4a15111610064578063c4f4a15114610290578063db2e21bc146102a5578063e30c3978146102ba578063e3161ddd146102cf578063f7c618c1146102f157610109565b80638da5cb5b146102265780639e447fc61461023b578063b69ef8a81461025b578063c031a66f1461027057610109565b806350fd1f3e116100d157806350fd1f3e1461019d5780635a2f3d09146101bf5780635fcbd285146101e257806373cfc6b21461020457610109565b8063078dfbe71461010e578063180da948146101305780631959a002146101505780634e71e0c81461018857610109565b3661010957005b600080fd5b34801561011a57600080fd5b5061012e610129366004611146565b610306565b005b34801561013c57600080fd5b5061012e61014b36600461118f565b6103f5565b34801561015c57600080fd5b5061017061016b366004611124565b6107dd565b60405161017f9392919061150e565b60405180910390f35b34801561019457600080fd5b5061012e6107fe565b3480156101a957600080fd5b506101b261088b565b60405161017f91906114f7565b3480156101cb57600080fd5b506101d4610891565b60405161017f929190611500565b3480156101ee57600080fd5b506101f761089a565b60405161017f919061123e565b34801561021057600080fd5b506102196108be565b60405161017f919061126b565b34801561023257600080fd5b506101f76108e2565b34801561024757600080fd5b5061012e6102563660046111d5565b6108f1565b34801561026757600080fd5b506101b261096a565b34801561027c57600080fd5b506101b261028b366004611124565b610a3b565b34801561029c57600080fd5b506101f7610be0565b3480156102b157600080fd5b5061012e610c04565b3480156102c657600080fd5b506101f7610da9565b3480156102db57600080fd5b506102e4610db8565b60405161017f91906114e0565b3480156102fd57600080fd5b506101f7610f19565b6000546001600160a01b031633146103395760405162461bcd60e51b8152600401610330906113b4565b60405180910390fd5b81156103d4576001600160a01b0383161515806103535750805b61036f5760405162461bcd60e51b8152600401610330906112d6565b600080546040516001600160a01b03808716939216917f8be0079c531659141344cd1fd0a4f28419497f9722a3daafe3b4186f6b6457e091a3600080546001600160a01b0385166001600160a01b0319918216179091556001805490911690556103f0565b600180546001600160a01b0319166001600160a01b0385161790555b505050565b336001600160a01b037f0000000000000000000000000000000000000000000000000000000000000000161461043d5760405162461bcd60e51b81526004016103309061148c565b60028054141561045f5760405162461bcd60e51b815260040161033090611455565b6002805561046b610db8565b506104746110f3565b5060408051808201825260035481526004546020808301919091526001600160a01b0385166000908152600590915291822080549192909115610764576104f682600201546104f0846001015464e8d4a510006104e288600001518860000154610f4390919063ffffffff16565b816104e957fe5b0490610f86565b90610fae565b90507f00000000000000000000000000000000000000000000000000000000000000001561063c5747808211156105b1576000866001600160a01b03168260405161054090610a38565b60006040518083038185875af1925050503d806000811461057d576040519150601f19603f3d011682016040523d82523d6000602084013e610582565b606091505b50509050806105a35760405162461bcd60e51b815260040161033090611276565b508082036002840155610636565b6000866001600160a01b0316836040516105ca90610a38565b60006040518083038185875af1925050503d8060008114610607576040519150601f19603f3d011682016040523d82523d6000602084013e61060c565b606091505b505090508061062d5760405162461bcd60e51b815260040161033090611276565b50600060028401555b50610764565b6040516370a0823160e01b81526000906001600160a01b037f000000000000000000000000000000000000000000000000000000000000000016906370a082319061068b90309060040161123e565b60206040518083038186803b1580156106a357600080fd5b505afa1580156106b7573d6000803e3d6000fd5b505050506040513d601f19601f820116820180604052508101906106db91906111ed565b905080821115610726576107196001600160a01b037f0000000000000000000000000000000000000000000000000000000000000000168783610fd3565b8082036002840155610762565b61075a6001600160a01b037f0000000000000000000000000000000000000000000000000000000000000000168784610fd3565b600060028401555b505b838255825164e8d4a510009061077b908690610f43565b8161078257fe5b04600183015560028201546040516001600160a01b038716917fd1072bb52c3131d0c96197b73fb8a45637e30f8b6664fc142310cc9b242859b4916107c9918503906114f7565b60405180910390a250506001600255505050565b60056020526000908152604090208054600182015460029092015490919083565b6001546001600160a01b03163381146108295760405162461bcd60e51b8152600401610330906113e9565b600080546040516001600160a01b03808516939216917f8be0079c531659141344cd1fd0a4f28419497f9722a3daafe3b4186f6b6457e091a3600080546001600160a01b039092166001600160a01b0319928316179055600180549091169055565b60065481565b60035460045482565b7f000000000000000000000000000000000000000000000000000000000000000081565b7f000000000000000000000000000000000000000000000000000000000000000081565b6000546001600160a01b031681565b6000546001600160a01b0316331461091b5760405162461bcd60e51b8152600401610330906113b4565b610923610db8565b5060068054908290556040517fc390a98ace15a7bb6bab611eedfdbb2685043b241a869420043cdfb23ccfee509061095e9083908590611500565b60405180910390a15050565b60007f000000000000000000000000000000000000000000000000000000000000000015610999575047610a38565b6040516370a0823160e01b81526001600160a01b037f000000000000000000000000000000000000000000000000000000000000000016906370a08231906109e590309060040161123e565b60206040518083038186803b1580156109fd57600080fd5b505afa158015610a11573d6000803e3d6000fd5b505050506040513d601f19601f82011682018060405250810190610a3591906111ed565b90505b90565b6000610a456110f3565b506040805180820182526003548152600480546020808401919091526001600160a01b0380871660009081526005909252848220845195516370a0823160e01b81529495909490937f0000000000000000000000000000000000000000000000000000000000000000909216916370a0823191610ae4917f0000000000000000000000000000000000000000000000000000000000000000910161123e565b60206040518083038186803b158015610afc57600080fd5b505afa158015610b10573d6000803e3d6000fd5b505050506040513d601f19601f82011682018060405250810190610b3491906111ed565b9050836020015142118015610b4857508015155b15610ba9576000610b66856020015142610f8690919063ffffffff16565b90506000610b7f60065483610f4390919063ffffffff16565b9050610ba4610b9d84610b978464e8d4a51000610f43565b906110c1565b8590610fae565b935050505b610bd683600201546104f0856001015464e8d4a510006104e2878960000154610f4390919063ffffffff16565b9695505050505050565b7f000000000000000000000000000000000000000000000000000000000000000081565b6000546001600160a01b03163314610c2e5760405162461bcd60e51b8152600401610330906113b4565b7f000000000000000000000000000000000000000000000000000000000000000015610cd6576000336001600160a01b031647604051610c6d90610a38565b60006040518083038185875af1925050503d8060008114610caa576040519150601f19603f3d011682016040523d82523d6000602084013e610caf565b606091505b5050905080610cd05760405162461bcd60e51b815260040161033090611276565b50610da7565b610da7337f00000000000000000000000000000000000000000000000000000000000000006001600160a01b03166370a08231306040518263ffffffff1660e01b8152600401610d26919061123e565b60206040518083038186803b158015610d3e57600080fd5b505afa158015610d52573d6000803e3d6000fd5b505050506040513d601f19601f82011682018060405250810190610d7691906111ed565b6001600160a01b037f0000000000000000000000000000000000000000000000000000000000000000169190610fd3565b565b6001546001600160a01b031681565b610dc06110f3565b5060408051808201909152600354815260045460208201819052421115610a38576040516370a0823160e01b81526000906001600160a01b037f000000000000000000000000000000000000000000000000000000000000000016906370a0823190610e50907f00000000000000000000000000000000000000000000000000000000000000009060040161123e565b60206040518083038186803b158015610e6857600080fd5b505afa158015610e7c573d6000803e3d6000fd5b505050506040513d601f19601f82011682018060405250810190610ea091906111ed565b90508015610f05576000610ec1836020015142610f8690919063ffffffff16565b90506000610eda60065483610f4390919063ffffffff16565b9050610f0083610eef8364e8d4a51000610f43565b81610ef657fe5b8651919004610fae565b845250505b504260208201819052815160035560045590565b7f000000000000000000000000000000000000000000000000000000000000000081565b3b151590565b600082610f5257506000610f80565b82820282848281610f5f57fe5b0414610f7d5760405162461bcd60e51b815260040161033090611373565b90505b92915050565b600082821115610fa85760405162461bcd60e51b815260040161033090611305565b50900390565b600082820183811015610f7d5760405162461bcd60e51b81526004016103309061129f565b60006060846001600160a01b031663a9059cbb8585604051602401610ff9929190611252565b6040516020818303038152906040529060e01b6020820180516001600160e01b0383818316178352505050506040516110329190611205565b6000604051808303816000865af19150503d806000811461106f576040519150601f19603f3d011682016040523d82523d6000602084013e611074565b606091505b509150915081801561109e57508051158061109e57508080602001905181019061109e91906111b9565b6110ba5760405162461bcd60e51b81526004016103309061141e565b5050505050565b60008082116110e25760405162461bcd60e51b81526004016103309061133c565b8183816110eb57fe5b049392505050565b604051806040016040528060008152602001600081525090565b80356001600160a01b0381168114610f8057600080fd5b600060208284031215611135578081fd5b61113f838361110d565b9392505050565b60008060006060848603121561115a578182fd5b611164858561110d565b9250602084013561117481611524565b9150604084013561118481611524565b809150509250925092565b600080604083850312156111a1578182fd5b6111ab848461110d565b946020939093013593505050565b6000602082840312156111ca578081fd5b8151610f7d81611524565b6000602082840312156111e6578081fd5b5035919050565b6000602082840312156111fe578081fd5b5051919050565b60008251815b81811015611225576020818601810151858301520161120b565b818111156112335782828501525b509190910192915050565b6001600160a01b0391909116815260200190565b6001600160a01b03929092168252602082015260400190565b901515815260200190565b6020808252600f908201526e151c985b9cd9995c8819985a5b1959608a1b604082015260600190565b6020808252601b908201527f536166654d6174683a206164646974696f6e206f766572666c6f770000000000604082015260600190565b6020808252601590820152744f776e61626c653a207a65726f206164647265737360581b604082015260600190565b6020808252601e908201527f536166654d6174683a207375627472616374696f6e206f766572666c6f770000604082015260600190565b6020808252601a908201527f536166654d6174683a206469766973696f6e206279207a65726f000000000000604082015260600190565b60208082526021908201527f536166654d6174683a206d756c7469706c69636174696f6e206f766572666c6f6040820152607760f81b606082015260800190565b6020808252818101527f4f776e61626c653a2063616c6c6572206973206e6f7420746865206f776e6572604082015260600190565b6020808252818101527f4f776e61626c653a2063616c6c657220213d2070656e64696e67206f776e6572604082015260600190565b6020808252601a908201527f5361666545524332303a205472616e73666572206661696c6564000000000000604082015260600190565b6020808252601f908201527f5265656e7472616e637947756172643a207265656e7472616e742063616c6c00604082015260600190565b60208082526034908201527f6f6e6c794d43413a206f6e6c79204d617374657243686566417869616c206361604082015273371031b0b636103a3434b990333ab731ba34b7b760611b606082015260800190565b815181526020918201519181019190915260400190565b90815260200190565b918252602082015260400190565b9283526020830191909152604082015260600190565b801515811461153257600080fd5b5056fea2646970667358221220e0816429f9c6035858e8b334b030c6651839fa1ef89123d4d830b717b8482a5864736f6c634300060c0033",
    "sourcePath": "/home/bayo/dev/source/axial-protocol/contracts/rewarders/SimpleRewarderPerSec.sol",
    "compiler": {
        "name": "solc",
        "version": "0.6.12+commit.27d51765"
    },
    "functionHashes": {
        "MCA()": "c4f4a151",
        "balance()": "b69ef8a8",
        "claimOwnership()": "4e71e0c8",
        "emergencyWithdraw()": "db2e21bc",
        "isNative()": "73cfc6b2",
        "lpToken()": "5fcbd285",
        "onAxialReward(address,uint256)": "180da948",
        "owner()": "8da5cb5b",
        "pendingOwner()": "e30c3978",
        "pendingTokens(address)": "c031a66f",
        "poolInfo()": "5a2f3d09",
        "rewardToken()": "f7c618c1",
        "setRewardRate(uint256)": "9e447fc6",
        "tokenPerSec()": "50fd1f3e",
        "transferOwnership(address,bool,bool)": "078dfbe7",
        "updatePool()": "e3161ddd",
        "userInfo(address)": "1959a002"
    },
    "gasEstimates": {
        "creation": {
            "codeDepositCost": "1096600",
            "executionCost": "infinite",
            "totalCost": "infinite"
        },
        "external": {
            "MCA()": "infinite",
            "balance()": "infinite",
            "claimOwnership()": "45112",
            "emergencyWithdraw()": "infinite",
            "isNative()": "infinite",
            "lpToken()": "infinite",
            "onAxialReward(address,uint256)": "infinite",
            "owner()": "1093",
            "pendingOwner()": "1136",
            "pendingTokens(address)": "infinite",
            "poolInfo()": "1894",
            "rewardToken()": "infinite",
            "setRewardRate(uint256)": "infinite",
            "tokenPerSec()": "1051",
            "transferOwnership(address,bool,bool)": "infinite",
            "updatePool()": "infinite",
            "userInfo(address)": "3003"
        }
    }
}